:020000040800F2
:100000003808002071030008CD030008CD03000864
:10001000CD030008CD030008CD0300080000000058
:10002000000000000000000000000000CD030008F8
:10003000CD03000800000000CD030008CD03000838
:10004000CD030008CD030008CD030008CD03000850
:10005000CD030008CD030008010D0008CD03000802
:10006000CD030008CD030008CD030008CD03000830
:10007000CD030008CD030008CD030008CD03000820
:10008000CD030008CD030008CD030008CD03000810
:10009000CD030008CD030008CD030008CD03000800
:1000A000CD030008CD030008CD030008CD030008F0
:1000B0001D0D0008CD030008CD030008CD03000886
:1000C000CD030008CD030008CD030008CD030008D0
:1000D000CD030008CD030008CD030008CD030008C0
:1000E000CD030008CD030008CD030008CD030008B0
:1000F000CD030008CD030008CD030008CD030008A0
:10010000CD030008CD030008CD030008CD0300088F
:10011000CD030008CD030008CD030008CD0300087F
:10012000CD030008CD030008CD030008CD0300086F
:10013000CD030008CD030008CD030008CD0300085F
:10014000CD030008CD030008CD030008CD0300084F
:10015000CD030008CD030008CD030008CD0300083F
:10016000CD030008CD030008CD030008CD0300082F
:10017000CD030008CD030008CD030008CD0300081F
:10018000CD030008CD03000890B484B000AF024650
:100190000B46FA71BB710023FB60BB7903F00303CC
:1001A0009B000F2202FA03F3FB60154BBA79920809
:1001B000D2B21349B8798008C0B2023051F8200099
:1001C000F968C9430140023243F822100C4BBA7956
:1001D0009208D2B20A49B8798008C0B2023051F808
:1001E0002000FC79B97901F00301890004FA01F1DA
:1001F0000143023243F822101037BD4690BC7047CD
:100200000038014080B588B000AF1920012100F00E
:1002100055F94FF48050012100F08CF902233B7214
:100220000023BB72E0237B600123FB7203237B72FC
:100230003B1D2148194600F063FB1F48052105229C
:1002400000F034FC1C480621052200F02FFC1A485F
:100250000721052200F02AFC01233B7208237B6062
:100260000023FB723B1D1548194600F049FB13485B
:10027000082100F0EDFB08233B830123BB8202230E
:100280007B820723BB8300233B820023BB810023A7
:100290007B834FF48273FB814FF40073FB8207F181
:1002A0000C030748194600F047FC0548012100F0FF
:1002B00087FC2037BD4680BD000002400010024090
:1002C0000030014080B582B000AF0346FB71FB797E
:1002D0009BB20E48194600F0A1FC00BF0B4802215A
:1002E00000F0AAFC0346002BF8D000BF074801210C
:1002F00000F0A2FC0346002BF8D0044800F080FC7C
:100300000346DBB218460837BD4680BD00300140C9
:1003100080B500AFFFF776FF80BD00BF80B582B02B
:1003200000AF02460B46FA71BB710948082100F084
:100330009DFBFB791846FFF7C5FFBB791846FFF711
:10034000C1FF0348082100F083FB0837BD4680BD8C
:100350000010024080B582B000AF0346FB71FB790C
:1003600020201946FFF7DAFF0837BD4680BD00BFE1
:1003700080B582B000AF104B7B60104B3B6007E054
:100380003B681A1D3A607A68111D796012681A601C
:100390003A680B4B9A42F3D30A480B494FF00002DC
:1003A0008842B8BF40F8042BFFF6FAAF00F012F80D
:1003B0000837BD4680BD00BF681900080000002056
:1003C00034000020340000203800002080B400AF4A
:1003D000FEE700BF80B588B000AF00F0BFFC00238F
:1003E000BB6100237B6101233B610023FB6100F0C3
:1003F00007FD0346FB81FB89642202FB03F30D4AE0
:1004000082FB03121A44D212DB17D31ABB60BB68FB
:10041000094A82FB03125210DB17D31A7B607A68F9
:10042000FB699A4205D0786800F024F87B68FB618C
:10043000DDE7DCE781000880ABAAAA2A80B400AF20
:10044000BD465DF8047B704780B500AF084B1B8844
:10045000013B9AB2064B1A80054B1B88002B06D134
:10046000002000F035FC024B4FF47A721A8080BDF8
:100470000000002080B584B000AF78600023FB60EE
:1004800007E0FB68DBB2184600F0F2FBFB680133C3
:10049000FB60FA687B689A42F3DD7B68FB6007E0EB
:1004A000FB68DBB2184600F0FBFBFB680133FB6026
:1004B000FB68072BF4DD1037BD4680BD80B483B0E8
:1004C00000AF78600B46FB70FB78002B06D0094B21
:1004D000084A116B7A680A431A6306E0054B054A1D
:1004E000116B7A68D2430A401A630C37BD465DF837
:1004F000047B70470038024080B483B000AF78605E
:100500000B46FB70FB78002B06D0094B084A116C98
:100510007A680A431A6406E0054B054A116C7A684A
:10052000D2430A401A640C37BD465DF8047B70471D
:100530000038024080B483B000AF78600B46FB7097
:10054000FB78002B06D0094B084A516C7A680A43A5
:100550005A6406E0054B054A516C7A68D2430A405A
:100560005A640C37BD465DF8047B70470038024082
:1005700080B485B000AF786039600023FB60002351
:10058000FB727B685B68FB60FB6823F0407323F4BD
:100590008073FB603B681B791A023B681B6813433E
:1005A000FA681343FB607B68FA685A607B689B6853
:1005B000FB60FA68174B1340FB603B681A693B68A5
:1005C000DB681A433B689B681A433B685B795B00B6
:1005D0001343FA681343FB607B68FA689A607B6890
:1005E000DB6AFB60FB6823F47003FB603B681B7DE8
:1005F000013BDAB2FB7A1343FB72FB7A1B05FA6804
:100600001343FB607B68FA68DA621437BD465DF815
:10061000047B7047FDF7FFC080B483B000AF786003
:100620007B6800221A607B6800221A717B680022B6
:100630005A717B6800229A607B680022DA607B68CE
:1006400000221A617B6801221A750C37BD465DF8DD
:10065000047B704780B485B000AF78600023FB60F6
:100660000E4B5B68FB60FA680D4B1340FB607B68C8
:100670001A687B685B681A437B689B681A437B68CF
:10068000DB681343FA681343FB60044BFA685A6053
:100690001437BD465DF8047B704700BF002301405E
:1006A000E030FCFF80B483B000AF78607B6800224C
:1006B0001A607B6800225A607B6800229A607B681F
:1006C0000022DA600C37BD465DF8047B704700BF3E
:1006D00080B483B000AF78600B46FB70FB78002BD2
:1006E00006D07B689B6843F001027B689A6005E056
:1006F0007B689B6823F001027B689A600C37BD46DB
:100700005DF8047B704700BF80B485B000AF7860AF
:10071000F970BA707B700023FB600023BB60FB782C
:10072000092B23D97B68DB68FB60FB78A3F10A0205
:1007300013465B001344072202FA03F3BB60BB6855
:10074000DB43FA681340FB607978FB78A3F10A0277
:1007500013465B00134401FA03F3BB60FA68BB68FD
:100760001343FB607B68FA68DA601EE07B681B69F4
:10077000FB60FA7813465B001344072202FA03F386
:10078000BB60BB68DB43FA681340FB607978FA789A
:1007900013465B00134401FA03F3BB60FA68BB68BD
:1007A0001343FB607B68FA681A61BB78062B21D87B
:1007B0007B685B6BFB60BB785A1E13469B0013443F
:1007C0001F2202FA03F3BB60BB68DB43FA681340E5
:1007D000FB60F978BB785A1E13469B00134401FA5C
:1007E00003F3BB60FA68BB681343FB607B68FA687D
:1007F0005A6347E0BB780C2B21D87B681B6BFB60EE
:10080000BB78DA1F13469B0013441F2202FA03F33E
:10081000BB60BB68DB43FA681340FB60F978BB78C8
:10082000DA1F13469B00134401FA03F3BB60FA6816
:10083000BB681343FB607B68FA681A6322E07B683D
:10084000DB6AFB60BB78A3F10D0213469B001344E7
:100850001F2202FA03F3BB60BB68DB43FA68134054
:10086000FB60F978BB78A3F10D0213469B0013449B
:1008700001FA03F3BB60FA68BB681343FB607B6853
:10088000FA68DA621437BD465DF8047B704700BF32
:1008900080B483B000AF78607B689B6843F080428F
:1008A0007B689A600C37BD465DF8047B704700BFDB
:1008B00080B483B000AF78607B68DB6C9BB2184675
:1008C0000C37BD465DF8047B704700BF80B485B02F
:1008D00000AF78600B46FB700023FB737B681A68DF
:1008E000FB781340002B02D00123FB7301E00023AF
:1008F000FB73FB7B18461437BD465DF8047B7047DD
:1009000080B487B000AF7860396000237B6100233A
:100910003B610023FB6000237B6176E07B69012261
:1009200002FA03F33B613B681A683B691340FB60C2
:10093000FA683B699A4265D17B681A687B695B00FB
:10094000032101FA03F3DB431A407B681A607B68DA
:100950001A683B681B7919467B695B0001FA03F34F
:100960001A437B681A603B681B79012B03D03B68F4
:100970001B79022B2ED17B689A687B695B0003216F
:1009800001FA03F3DB431A407B689A607B689A683C
:100990003B685B7919467B695B0001FA03F31A43F4
:1009A0007B689A607B685A687B699BB2012101FA77
:1009B00003F3DB431A407B685A607B685A683B68E4
:1009C0009B7919467B699BB201FA03F39BB21A43E8
:1009D0007B685A607B68DA687B699BB25B000321A5
:1009E00001FA03F3DB431A407B68DA607B68DA685C
:1009F0003B68DB7919467B695B0001FA03F31A4314
:100A00007B68DA607B6901337B617B690F2B85D959
:100A10001C37BD465DF8047B704700BF80B483B0CF
:100A200000AF78607B684FF6FF721A607B68002227
:100A30001A717B6800225A717B6800229A717B6868
:100A40000022DA710C37BD465DF8047B704700BFA9
:100A500080B483B000AF78600B467B807B687A8877
:100A60001A830C37BD465DF8047B704780B483B0B1
:100A700000AF78600B467B807B687A885A830C379E
:100A8000BD465DF8047B704780B483B000AF7860EA
:100A90000B467B807B685A697B885A407B685A6129
:100AA0000C37BD465DF8047B704700BF80B485B04D
:100AB00000AF786013460A467A807B700023FB60A3
:100AC0000023BB607A787B8803F007039B0002FA5F
:100AD00003F3FB607B88DB089BB21A467B88DB084C
:100AE0009BB219467B68083153F821107B8803F0CC
:100AF00007039B000F2000FA03F3DB4319407B68D8
:100B0000083243F822107B88DB089BB21A467B68C8
:100B1000083253F82220FB681343BB607B88DB0854
:100B20009BB21A467B680832B96843F82210143722
:100B3000BD465DF8047B704780B485B000AF786037
:100B400039600023FB817B681B88FB81FB8903F4F0
:100B50004153FB813B681A883B685B8813439AB218
:100B60003B689B8813439AB23B68DB8813439AB275
:100B70003B681B8913439AB23B685B8913439AB263
:100B80003B689B8913439AB23B68DB8913439AB253
:100B9000FB891343FB817B68FA891A807B689B8BF6
:100BA0009BB223F400639AB27B689A833B681A8AEB
:100BB0007B681A821437BD465DF8047B704700BF1E
:100BC00080B483B000AF78600B46FB70FB78002BDD
:100BD00008D07B681B889BB243F040039AB27B68C5
:100BE0001A8007E07B681B889BB223F040039AB20F
:100BF0007B681A800C37BD465DF8047B704700BFE8
:100C000080B483B000AF78607B689B899BB2184644
:100C10000C37BD465DF8047B704700BF80B483B0DD
:100C200000AF78600B467B807B687A889A810C37AE
:100C3000BD465DF8047B704780B485B000AF786036
:100C40000B467B800023FB737B681B899AB27B88F1
:100C500013409BB2002B02D00123FB7301E0002361
:100C6000FB73FB7B18461437BD465DF8047B704769
:100C700080B582B000AF0346FB71FA79064B53F89A
:100C80002220F979054B33F8113010461946FFF749
:100C9000DFFE0837BD4680BD14000020481900085B
:100CA00080B582B000AF0346FB71FA79064B53F86A
:100CB0002220F979054B33F8113010461946FFF719
:100CC000D5FE0837BD4680BD140000204819000835
:100CD00080B582B000AF0346FB71FA79064B53F83A
:100CE0002220F979054B33F8113010461946FFF7E9
:100CF000CBFE0837BD4680BD040000204019000827
:100D000080B500AF012000F02FFA0346002B04D07D
:100D1000012000F01BFAFFF791FB80BD80B500AF0A
:100D20004FF08040012100F0D1FD0346002B12D08E
:100D30004FF08040012100F0F3FDFFF785FB064BEB
:100D40001B889BB2002B06D0034B1B889BB2013B38
:100D50009AB2014B1A8080BD3400002080B500AFEC
:100D600000F06AF800F0FEF800F092F800F0CAF81F
:100D7000FFF7CEFA4720FFF7EDFA00F001F880BD4B
:100D800080B58CB000AF4FF480700121FFF7D2FB2B
:100D900004200121FFF792FB07F128031846FFF713
:100DA0003DFE0423BB62032387F82C3007F12803A0
:100DB00011481946FFF7A4FD07F118031846FFF77D
:100DC00071FC4FF48033FB6107F118031846FFF7FD
:100DD00041FC3B461846FFF71FFC00233B603B46A7
:100DE00006481946FFF7C4FB04480121FFF770FCD1
:100DF0003037BD4680BD00BF0008024000200140E2
:100E000080B500AF0B480C2101220123FFF77CFCC9
:100E10000848FFF73DFD00BF06480221FFF756FDD9
:100E20000346012BF8D10348FFF742FD034618465D
:100E300080BD00BF0020014080B582B000AF082017
:100E40000121FFF73BFB4FF440433B603B6843F419
:100E500040533B603B6843F003033B603B6843F017
:100E6000CC033B603B6843F440633B6001233B7130
:100E700002237B710023BB710023FB713B460348B7
:100E80001946FFF73DFD0837BD4680BD000C024006
:100E900080B586B000AF01200121FFF70FFB0123D1
:100EA0003B6100233B7502237B750023BB75022346
:100EB000FB7507F1100312481946FFF721FD0020CA
:100EC0000021FFF761F901237B6000233B720823B7
:100ED0007B720123BB723B1D184600F0C9F8062344
:100EE0003B7301237B730123BB730123FB7307F166
:100EF0000C03184600F05CF91837BD4680BD00BFF2
:100F00000000024080B584B000AF1C233B7000237A
:100F10007B700123BB700123FB703B46184600F039
:100F200047F901200121FFF7E7FA4FF47A73BB601C
:100F30000F23BB800023BB810023FB803B1D4FF0B0
:100F40008040194600F092F94FF0804001210122C3
:100F500000F098FC4FF08040012100F011FA1037AA
:100F6000BD4680BD80B58AB000AF04200121FFF7E7
:100F7000C3FA08200121FFF7A1FA02233B760023E0
:100F8000BB764FF470437B610123FB7602237B76B3
:100F900007F1140334481946FFF7B2FC32480F2119
:100FA0000222FFF783FD30480E210222FFF77EFD6B
:100FB0002D480D210222FFF779FD2B480C2102223A
:100FC000FFF774FD0023BB840023FB8342F2107300
:100FD0003B620F23BB8307F11C032448194600F032
:100FE00045F960233B8001237B800023BB60002305
:100FF000BB813B461D48194600F0E2F91B48082119
:1010000000F0CCFB01237B800023BB603B461748EC
:10101000194600F04FFA1548082100F0DBFB0123C8
:101020007B800023BB603B461048194600F0CAFA9B
:101030000E48082100F0ECFB01237B800023BB60FD
:101040003B460A48194600F043FB0848082100F0D7
:10105000FBFB0648012100F073F90448012100F070
:101060008FF92837BD4680BD000C024000080040C3
:1010700080B485B000AF78600023FB60324BFB602A
:101080007B689B79002B4DD02F4B2F4A11687A68D3
:101090001268D2430A401A602B4B2B4A51687A6877
:1010A0001268D2430A405A607B681B79FA6813447D
:1010B000FB60FB68FA6811687A6812680A431A6074
:1010C000214B214A91687A681268D2430A409A609B
:1010D0001D4B1D4AD1687A681268D2430A40DA6013
:1010E0007B685B79102B0ED1174B174A91687A6891
:1010F00012680A439A60144B134AD1687A681268DE
:101100000A43DA601BE0104BFB607B685B79FA688E
:101110001344FB60FB68FA6811687A6812680A4336
:101120001A600CE07B681B79FA681344FB60FB686B
:10113000FA6811687A681268D2430A401A60143754
:10114000BD465DF8047B7047003C014080B483B02D
:1011500000AF7860034B7A685A610C37BD465DF882
:10116000047B7047003C014080B485B000AF7860DC
:101170000023FB730023BB600C4B1A687B68134091
:10118000BB600A4B5A697B681340002B05D0BB68D3
:10119000002B02D00123FB7301E00023FB73FB7BD8
:1011A00018461437BD465DF8047B7047003C01408B
:1011B00080B485B000AF78600023FB730023BB735D
:1011C0000F237B737B68DB78002B37D0254BDB68E4
:1011D000DB4303F4E0631B0AFB73FB7BC3F10403F3
:1011E000BB737A7BFB7B42FA03F37B737B685B7890
:1011F0001A46BB7B02FA03F3FB737B689A787B7B0E
:101200001340DAB2FB7B1343FB73FB7B1B01FB73C5
:10121000154A7B681B781344FA7B83F80023124B32
:101220007A6812785209D2B27968097801F01F0100
:10123000012000FA01F143F822100EE00A4B7A680F
:1012400012785209D2B27968097801F01F010120A1
:1012500000FA01F1203243F822101437BD465DF840
:10126000047B704700ED00E000E100E080B485B051
:1012700000AF786039600023FB817B681B88FB81AD
:101280007A68284B9A4213D07A68274B9A420FD03B
:101290007B68B3F1804F0BD07A68244B9A4207D019
:1012A0007A68234B9A4203D07A68224B9A4208D13B
:1012B000FB8923F07003FB813B685A88FB89134349
:1012C000FB817A681C4B9A420CD07A681B4B9A427D
:1012D00008D0FB8923F44073FB813B681A89FB89A2
:1012E0001343FB817B68FA891A803B685A687B68E4
:1012F000DA623B681A887B681A857A68094B9A42D9
:1013000003D07A68084B9A4204D13B689B7A1A460C
:101310007B681A867B6801229A821437BD465DF885
:10132000047B7047000001400004014000040040BD
:1013300000080040000C0040001000400014004075
:1013400080B483B000AF78600B46FB70FB78002B55
:1013500008D07B681B889BB243F080039AB27B68FD
:101360001A8007E07B681B889BB223F080039AB247
:101370007B681A800C37BD465DF8047B704700BF60
:1013800080B483B000AF78600B46FB70FB78002B15
:1013900008D07B681B889BB243F001039AB27B683C
:1013A0001A8007E07B681B889BB223F001039AB286
:1013B0007B681A800C37BD465DF8047B704700BF20
:1013C00080B485B000AF7860396000237B81002352
:1013D000FB810023BB817B681B8C9BB223F0010344
:1013E0009AB27B681A847B681B8CFB817B689B8824
:1013F000BB817B681B8B7B817B8923F070037B81A6
:101400007B8923F003037B813B681A887B89134324
:101410007B81FB8923F00203FB813B689A89FB896E
:101420001343FB813B685A88FB891343FB817A682D
:101430001E4B9A4203D07A681D4B9A4223D1FB89F6
:1014400023F00803FB813B68DA89FB891343FB81A6
:10145000FB8923F00403FB813B689A88FB891343D3
:10146000FB81BB8923F48073BB81BB8923F40073A8
:10147000BB813B681A8ABB891343BB813B685A8A8C
:10148000BB891343BB817B68BA899A807B687A8960
:101490001A833B689A687B685A637B68FA891A8466
:1014A0001437BD465DF8047B704700BF0000014063
:1014B0000004014080B485B000AF7860396000233B
:1014C0007B810023FB810023BB817B681B8C9BB24B
:1014D00023F010039AB27B681A847B681B8CFB8113
:1014E0007B689B88BB817B681B8B7B817B8923F41A
:1014F000E0437B817B8923F440737B813B681B88BD
:101500001B029AB27B8913437B81FB8923F0200362
:10151000FB813B689B891B019AB2FB891343FB81CA
:101520003B685B881B019AB2FB891343FB817A6895
:10153000224B9A4203D07A68214B9A422BD1FB89E5
:1015400023F08003FB813B68DB891B019AB2FB8996
:101550001343FB81FB8923F04003FB813B689B889D
:101560001B019AB2FB891343FB81BB8923F480637F
:10157000BB81BB8923F40063BB813B681B8A9B0052
:101580009AB2BB891343BB813B685B8A9B009AB2CA
:10159000BB891343BB817B68BA899A807B687A894F
:1015A0001A833B689A687B689A637B68FA891A8415
:1015B0001437BD465DF8047B704700BF0000014052
:1015C0000004014080B485B000AF7860396000232A
:1015D0007B810023FB810023BB817B681B8C9BB23A
:1015E00023F480739AB27B681A847B681B8CFB811E
:1015F0007B689B88BB817B689B8B7B817B8923F08D
:1016000070037B817B8923F003037B813B681A880D
:101610007B8913437B81FB8923F40073FB813B6847
:101620009B891B029AB2FB891343FB813B685B8851
:101630001B029AB2FB891343FB817A68224B9A42C0
:1016400003D07A68214B9A422BD1FB8923F40063A3
:10165000FB813B68DB891B029AB2FB891343FB8148
:10166000FB8923F48063FB813B689B881B029AB251
:10167000FB891343FB81BB8923F48053BB81BB8966
:1016800023F40053BB813B681B8A1B019AB2BB89C0
:101690001343BB813B685B8A1B019AB2BB8913432E
:1016A000BB817B68BA899A807B687A899A833B6818
:1016B0009A687B68DA637B68FA891A841437BD46B6
:1016C0005DF8047B704700BF00000140000401404A
:1016D00080B485B000AF786039600023BB810023FF
:1016E0007B810023FB817B681B8C9BB223F480539E
:1016F0009AB27B681A847B681B8C7B817B689B8891
:10170000FB817B689B8BBB81BB8923F4E043BB815E
:10171000BB8923F44073BB813B681B881B029AB2D0
:10172000BB891343BB817B8923F400537B813B68D6
:101730009B891B039AB27B8913437B813B685B883F
:101740001B039AB27B8913437B817A68114B9A42BF
:1017500003D07A68104B9A420AD1FB8923F4804364
:10176000FB813B681B8A9B019AB2FB891343FB8177
:101770007B68FA899A807B68BA899A833B689A6801
:101780007B681A647B687A891A841437BD465DF8D1
:10179000047B7047000001400004014080B485B024
:1017A00000AF78600B467B800023FB817B681B8B3E
:1017B000FB81FB8923F00803FB81FA897B881343B3
:1017C000FB817B68FA891A831437BD465DF8047B78
:1017D000704700BF80B485B000AF78600B467B8057
:1017E0000023FB817B681B8BFB81FB8923F4006357
:1017F000FB817B881B029AB2FB891343FB817B68C8
:10180000FA891A831437BD465DF8047B704700BF20
:1018100080B485B000AF78600B467B800023FB81ED
:101820007B689B8BFB81FB8923F00803FB81FA8992
:101830007B881343FB817B68FA899A831437BD4602
:101840005DF8047B704700BF80B485B000AF78605E
:101850000B467B800023FB817B689B8BFB81FB8994
:1018600023F40063FB817B881B029AB2FB8913433C
:10187000FB817B68FA899A831437BD465DF8047B47
:10188000704700BF80B483B000AF786013460A464B
:101890007A807B707B78002B08D07B689B899AB21A
:1018A0007B8813439AB27B689A8109E07B689B89A5
:1018B0009AB27B88DB439BB213409AB27B689A81D1
:1018C0000C37BD465DF8047B704700BF80B485B01F
:1018D00000AF78600B467B800023FB730023BB8145
:1018E00000237B817B681B8A9AB27B881340BB8173
:1018F0007B689B899AB27B8813407B81BB89002BD4
:1019000005D07B89002B02D00123FB7301E000236B
:10191000FB73FB7B18461437BD465DF8047B7047AC
:1019200080B483B000AF78600B467B807B88DB435C
:101930009AB27B681A820C37BD465DF8047B70470B
:101940000010004000200080010002000400080098
:101950004000800000040008340800403C080040BB
:08196000380800404008004077
:10196800E8030000000C0240000C0240000C02409A
:10197800000C0240000C0240000C0240000C024027
:10198800000C0240000C0240000C0240000C024017
:04199800000C0240FD
:0400000508000000EF
:00000001FF
