:020000040800F2
:1000000018080020B90400081505000815050008A7
:10001000150500081505000815050008000000007A
:1000200000000000000000000000000015050008AE
:10003000150500080000000015050008150500085A
:100040001505000815050008150500081505000828
:100050001505000815050008850A000815050008A3
:100060001505000815050008150500081505000808
:1000700015050008150500081505000815050008F8
:1000800015050008150500081505000815050008E8
:1000900015050008150500081505000815050008D8
:1000A00015050008150500081505000815050008C8
:1000B000A10A000815050008150500081505000827
:1000C00015050008150500081505000815050008A8
:1000D0001505000815050008150500081505000898
:1000E0001505000815050008150500081505000888
:1000F0001505000815050008150500081505000878
:100100001505000815050008150500081505000867
:100110001505000815050008150500081505000857
:100120001505000815050008150500081505000847
:100130001505000815050008150500081505000837
:100140001505000815050008150500081505000827
:100150001505000815050008150500081505000817
:100160001505000815050008150500081505000807
:1001700015050008150500081505000815050008F7
:10018000150500081505000890B484B000AF0246BC
:100190000B46FA71BB710023FB60BB7903F00303CC
:1001A0009B000F2202FA03F3FB60154BBA79920809
:1001B000D2B21349B8798008C0B2023051F8200099
:1001C000F968C9430140023243F822100C4BBA7956
:1001D0009208D2B20A49B8798008C0B2023051F808
:1001E0002000FC79B97901F00301890004FA01F1DA
:1001F0000143023243F822101037BD4690BC7047CD
:100200000038014080B588B000AF1920012100F00E
:1002100009FA4FF48050012100F040FA02233B72AA
:100220000023BB72E0237B600123FB7203237B72FC
:100230003B1D2148194600F04FFA1F4805210522B1
:1002400000F006FB1C480621052200F001FB1A48BD
:100250000721052200F0FCFA01233B7208237B6092
:100260000023FB723B1D1548194600F035FA134870
:10027000082100F0BFFA08233B830123BB8202233D
:100280007B820723BB8300233B820023BB810023A7
:100290007B834FF48273FB814FF40073FB8207F181
:1002A0000C030748194600F019FB0548012100F02E
:1002B00059FB2037BD4680BD0000024000100240BF
:1002C0000030014080B582B000AF0346FB71FB797E
:1002D0009BB20E48194600F073FB00BF0B48022189
:1002E00000F07CFB0346002BF8D000BF074801213B
:1002F00000F074FB0346002BF8D0044800F052FBDA
:100300000346DBB218460837BD4680BD00300140C9
:1003100080B500AFFFF776FF80BD00BF80B584B029
:1003200000AF0346FB710C48082100F071FAFB791D
:1003300063F07F03DBB21846FFF7C4FFAA20FFF784
:10034000C1FF0346FB730448082100F053FAFB7B0E
:1003500018461037BD4680BD0010024080B582B0FF
:1003600000AF02460B46FA71BB710948082100F044
:100370004FFAFB791846FFF7A5FFBB791846FFF740
:10038000A1FF0348082100F035FA0837BD4680BDBB
:100390000010024080B582B000AF0346FB71FB79CC
:1003A00020201946FFF7DAFF0837BD4680BD00BFA1
:1003B00080B584B000AF78602920FFF7AFFF034617
:1003C000FB81B7F90E301B02FB812820FFF7A6FF47
:1003D00003461A46FB8913449BB2FB81B7F90E30E2
:1003E000184601F007FA03461846796801F056FAF4
:1003F00003461846034901F005FB0346184610372B
:10040000BD4680BD00007A4480B584B000AF7860FE
:100410002B20FFF783FF0346FB81B7F90E301B0249
:10042000FB812A20FFF77AFF03461A46FB89134413
:100430009BB2FB81B7F90E30184601F0DBF9034699
:100440001846796801F02AFA03461846034901F074
:10045000D9FA034618461037BD4680BD00007A44DD
:1004600080B584B000AF78602D20FFF757FF0346BA
:10047000FB81B7F90E301B02FB812C20FFF74EFFEA
:1004800003461A46FB8913449BB2FB81B7F90E3031
:10049000184601F0AFF903461846796801F0FEF9F5
:1004A00003461846034901F0ADFA034618461037D3
:1004B000BD4680BD00007A4480B582B000AF104BCD
:1004C0007B60104B3B6007E03B681A1D3A607A681E
:1004D000111D796012681A603A680B4B9A42F3D387
:1004E0000A480B494FF000028842B8BF40F8042B7D
:1004F000FFF6FAAF00F012F80837BD4680BD00BF26
:100500008C1C0008000000201400002014000020B3
:100510001800002080B400AFFEE700BF80B588B0AF
:1005200000AF00F0DDFA00237B6100233B61012373
:10053000FB60F8694FF0000101F04EFB0346002B11
:100540000FD0FB6983F00043FB61F86901F06CFB9D
:1005500003467B617B69DBB20020194600F072FA2A
:100560000AE0F86901F060FB03467B617B69DBB25E
:100570000120194600F066FAB8694FF0000101F059
:100580002BFB0346002B0FD0BB6983F00043BB61FC
:10059000B86901F049FB03467B617B69DBB203204C
:1005A000194600F04FFA0AE0B86901F03DFB034636
:1005B0007B617B69DBB20220194600F043FA7820A8
:1005C00000F09CFAB860792000F098FA7860B8687A
:1005D000054901F063F90346FB617868024901F0BF
:1005E0005DF90346BB61A4E70000C84280B400AFD8
:1005F000BD465DF8047B704780B500AF084B1B8893
:10060000013B9AB2064B1A80054B1B88002B06D182
:10061000002000F0FFF9024B4FF47A721A8080BD7F
:100620000000002080B483B000AF78600B46FB7000
:10063000FB78002B06D0094B084A116B7A680A43F5
:100640001A6306E0054B054A116B7A68D2430A40EB
:100650001A630C37BD465DF8047B704700380240D2
:1006600080B483B000AF78600B46FB70FB78002B42
:1006700006D0094B084A116C7A680A431A6406E0EE
:10068000054B054A116C7A68D2430A401A640C374C
:10069000BD465DF8047B70470038024080B483B0EB
:1006A00000AF78600B46FB70FB78002B06D0094B3F
:1006B000084A516C7A680A435A6406E0054B054AB9
:1006C000516C7A68D2430A405A640C37BD465DF8D3
:1006D000047B70470038024080B487B000AF786078
:1006E000396000237B6100233B610023FB60002312
:1006F0007B6176E07B69012202FA03F33B613B6890
:100700001A683B691340FB60FA683B699A4265D1FD
:100710007B681A687B695B00032101FA03F3DB4302
:100720001A407B681A607B681A683B681B79194617
:100730007B695B0001FA03F31A437B681A603B682C
:100740001B79012B03D03B681B79022B2ED17B68D0
:100750009A687B695B00032101FA03F3DB431A40CB
:100760007B689A607B689A683B685B7919467B690D
:100770005B0001FA03F31A437B689A607B685A684E
:100780007B699BB2012101FA03F3DB431A407B68CA
:100790005A607B685A683B689B7919467B699BB2B3
:1007A00001FA03F39BB21A437B685A607B68DA68EC
:1007B0007B699BB25B00032101FA03F3DB431A4020
:1007C0007B68DA607B68DA683B68DB7919467B69AD
:1007D0005B0001FA03F31A437B68DA607B6901333B
:1007E0007B617B690F2B85D91C37BD465DF8047B87
:1007F000704700BF80B483B000AF78600B467B8049
:100800007B687A881A830C37BD465DF8047B704795
:1008100080B483B000AF78600B467B807B687A88B9
:100820005A830C37BD465DF8047B704780B483B0B3
:1008300000AF78600B467B807B685A697B885A40A2
:100840007B685A610C37BD465DF8047B704700BF7A
:1008500080B485B000AF786013460A467A807B701A
:100860000023FB600023BB607A787B8803F00703DA
:100870009B0002FA03F3FB607B88DB089BB21A46FD
:100880007B88DB089BB219467B68083153F821103E
:100890007B8803F007039B000F2000FA03F3DB4380
:1008A00019407B68083243F822107B88DB089BB232
:1008B0001A467B68083253F82220FB681343BB605A
:1008C0007B88DB089BB21A467B680832B96843F81C
:1008D00022101437BD465DF8047B704780B485B0A4
:1008E00000AF786039600023FB817B681B88FB8147
:1008F000FB8903F44153FB813B681A883B685B88A2
:1009000013439AB23B689B8813439AB23B68DB88D7
:1009100013439AB23B681B8913439AB23B685B89C5
:1009200013439AB23B689B8913439AB23B68DB89B5
:1009300013439AB2FB891343FB817B68FA891A80BF
:100940007B689B8B9BB223F400639AB27B689A838B
:100950003B681A8A7B681A821437BD465DF8047BAF
:10096000704700BF80B483B000AF78600B46FB7067
:10097000FB78002B08D07B681B889BB243F04003B8
:100980009AB27B681A8007E07B681B889BB223F0D1
:1009900040039AB27B681A800C37BD465DF8047B31
:1009A000704700BF80B483B000AF78607B689B89DC
:1009B0009BB218460C37BD465DF8047B704700BFFC
:1009C00080B483B000AF78600B467B807B687A8808
:1009D0009A810C37BD465DF8047B704780B485B0C2
:1009E00000AF78600B467B800023FB737B681B891C
:1009F0009AB27B8813409BB2002B02D00123FB7379
:100A000001E00023FB73FB7B18461437BD465DF8FD
:100A1000047B704780B582B000AF0346FB71FA7962
:100A2000064B53F82220F979054B33F81130104664
:100A30001946FFF7FBFE0837BD4680BD04000020C5
:100A4000741C000880B483B000AF02460B46FA71F4
:100A5000BB71FA79094B53F82220BB7942F210712D
:100A600001FB03F3064981FB03014911DB17CB1A94
:100A700013600C37BD465DF8047B70477C1C000892
:100A80001F85EB5180B500AF012000F00DFA034641
:100A9000002B04D0012000F0F9F9FFF7A7FD80BD7D
:100AA00080B500AF4FF08040012100F0AFFD03465C
:100AB000002B12D04FF08040012100F0D1FDFFF754
:100AC0009BFD064B1B889BB2002B06D0034B1B885B
:100AD0009BB2013B9AB2014B1A8080BD14000020EA
:100AE00080B500AF00F0DEF800F072F800F0AAF870
:100AF000FFF70EFC4720FFF74DFC80BD80B582B0AC
:100B000000AF0346FB71FB79583B222B57D801A25B
:100B100052F823F0A10B0008AB0B0008B50B00083E
:100B2000BF0B0008BF0B0008BF0B0008BF0B00087D
:100B3000BF0B0008BF0B0008BF0B0008BF0B00086D
:100B4000BF0B0008BF0B0008BF0B0008BF0B00085D
:100B5000BF0B0008BF0B0008BF0B0008BF0B00084D
:100B6000BF0B0008BF0B0008BF0B0008BF0B00083D
:100B7000BF0B0008BF0B0008BF0B0008BF0B00082D
:100B8000BF0B0008BF0B0008BF0B0008BF0B00081D
:100B9000BF0B0008A10B0008AB0B0008B50B000849
:100BA0000948FFF705FC03460AE00748FFF72CFC5D
:100BB000034605E00448FFF753FC034600E0034BFF
:100BC00018460837BD4680BD8FC2753D9AF979C475
:100BD00080B586B000AF01200121FFF723FD01237E
:100BE0003B6100233B7502237B750023BB75022309
:100BF000FB7507F1100312481946FFF76DFD002041
:100C00000021FFF7C1FA01237B6000233B72082318
:100C10007B720123BB723B1D184600F0C9F8062306
:100C20003B7301237B730123BB730123FB7307F128
:100C30000C03184600F05CF91837BD4680BD00BFB4
:100C40000000024080B584B000AF1C233B7000233D
:100C50007B700123BB700123FB703B46184600F0FC
:100C600047F901200121FFF7FBFC4FF47A73BB60C9
:100C70000F23BB800023BB810023FB803B1D4FF073
:100C80008040194600F092F94FF080400121012286
:100C900000F098FC4FF08040012100F011FA10376D
:100CA000BD4680BD80B58AB000AF04200121FFF7AA
:100CB000D7FC08200121FFF7B5FC02233B76002377
:100CC000BB764FF470437B610123FB7602237B7676
:100CD00007F1140334481946FFF7FEFC32480F2190
:100CE0000222FFF7B5FD30480E210222FFF7B0FDCA
:100CF0002D480D210222FFF7ABFD2B480C210222CB
:100D0000FFF7A6FD0023BB840023FB8342F2107390
:100D10003B620F23BB8307F11C032448194600F0F4
:100D200045F960233B8001237B800023BB600023C7
:100D3000BB813B461D48194600F0E2F91B480821DB
:100D400000F0CCFB01237B800023BB603B461748AF
:100D5000194600F04FFA1548082100F0DBFB01238B
:100D60007B800023BB603B461048194600F0CAFA5E
:100D70000E48082100F0ECFB01237B800023BB60C0
:100D80003B460A48194600F043FB0848082100F09A
:100D9000FBFB0648012100F073F90448012100F033
:100DA0008FF92837BD4680BD000C02400008004086
:100DB00080B485B000AF78600023FB60324BFB60ED
:100DC0007B689B79002B4DD02F4B2F4A11687A6896
:100DD0001268D2430A401A602B4B2B4A51687A683A
:100DE0001268D2430A405A607B681B79FA68134440
:100DF000FB60FB68FA6811687A6812680A431A6037
:100E0000214B214A91687A681268D2430A409A605D
:100E10001D4B1D4AD1687A681268D2430A40DA60D5
:100E20007B685B79102B0ED1174B174A91687A6853
:100E300012680A439A60144B134AD1687A681268A0
:100E40000A43DA601BE0104BFB607B685B79FA6851
:100E50001344FB60FB68FA6811687A6812680A43F9
:100E60001A600CE07B681B79FA681344FB60FB682E
:100E7000FA6811687A681268D2430A401A60143717
:100E8000BD465DF8047B7047003C014080B483B0F0
:100E900000AF7860034B7A685A610C37BD465DF845
:100EA000047B7047003C014080B485B000AF78609F
:100EB0000023FB730023BB600C4B1A687B68134054
:100EC000BB600A4B5A697B681340002B05D0BB6896
:100ED000002B02D00123FB7301E00023FB73FB7B9B
:100EE00018461437BD465DF8047B7047003C01404E
:100EF00080B485B000AF78600023FB730023BB7320
:100F00000F237B737B68DB78002B37D0254BDB68A6
:100F1000DB4303F4E0631B0AFB73FB7BC3F10403B5
:100F2000BB737A7BFB7B42FA03F37B737B685B7852
:100F30001A46BB7B02FA03F3FB737B689A787B7BD0
:100F40001340DAB2FB7B1343FB73FB7B1B01FB7388
:100F5000154A7B681B781344FA7B83F80023124BF5
:100F60007A6812785209D2B27968097801F01F01C3
:100F7000012000FA01F143F822100EE00A4B7A68D2
:100F800012785209D2B27968097801F01F01012064
:100F900000FA01F1203243F822101437BD465DF803
:100FA000047B704700ED00E000E100E080B485B014
:100FB00000AF786039600023FB817B681B88FB8170
:100FC0007A68284B9A4213D07A68274B9A420FD0FE
:100FD0007B68B3F1804F0BD07A68244B9A4207D0DC
:100FE0007A68234B9A4203D07A68224B9A4208D1FE
:100FF000FB8923F07003FB813B685A88FB8913430C
:10100000FB817A681C4B9A420CD07A681B4B9A423F
:1010100008D0FB8923F44073FB813B681A89FB8964
:101020001343FB817B68FA891A803B685A687B68A6
:10103000DA623B681A887B681A857A68094B9A429B
:1010400003D07A68084B9A4204D13B689B7A1A46CF
:101050007B681A867B6801229A821437BD465DF848
:10106000047B704700000140000401400004004080
:1010700000080040000C0040001000400014004038
:1010800080B483B000AF78600B46FB70FB78002B18
:1010900008D07B681B889BB243F080039AB27B68C0
:1010A0001A8007E07B681B889BB223F080039AB20A
:1010B0007B681A800C37BD465DF8047B704700BF23
:1010C00080B483B000AF78600B46FB70FB78002BD8
:1010D00008D07B681B889BB243F001039AB27B68FF
:1010E0001A8007E07B681B889BB223F001039AB249
:1010F0007B681A800C37BD465DF8047B704700BFE3
:1011000080B485B000AF7860396000237B81002314
:10111000FB810023BB817B681B8C9BB223F0010306
:101120009AB27B681A847B681B8CFB817B689B88E6
:10113000BB817B681B8B7B817B8923F070037B8168
:101140007B8923F003037B813B681A887B891343E7
:101150007B81FB8923F00203FB813B689A89FB8931
:101160001343FB813B685A88FB891343FB817A68F0
:101170001E4B9A4203D07A681D4B9A4223D1FB89B9
:1011800023F00803FB813B68DA89FB891343FB8169
:10119000FB8923F00403FB813B689A88FB89134396
:1011A000FB81BB8923F48073BB81BB8923F400736B
:1011B000BB813B681A8ABB891343BB813B685A8A4F
:1011C000BB891343BB817B68BA899A807B687A8923
:1011D0001A833B689A687B685A637B68FA891A8429
:1011E0001437BD465DF8047B704700BF0000014026
:1011F0000004014080B485B000AF786039600023FE
:101200007B810023FB810023BB817B681B8C9BB20D
:1012100023F010039AB27B681A847B681B8CFB81D5
:101220007B689B88BB817B681B8B7B817B8923F4DC
:10123000E0437B817B8923F440737B813B681B887F
:101240001B029AB27B8913437B81FB8923F0200325
:10125000FB813B689B891B019AB2FB891343FB818D
:101260003B685B881B019AB2FB891343FB817A6858
:10127000224B9A4203D07A68214B9A422BD1FB89A8
:1012800023F08003FB813B68DB891B019AB2FB8959
:101290001343FB81FB8923F04003FB813B689B8860
:1012A0001B019AB2FB891343FB81BB8923F4806342
:1012B000BB81BB8923F40063BB813B681B8A9B0015
:1012C0009AB2BB891343BB813B685B8A9B009AB28D
:1012D000BB891343BB817B68BA899A807B687A8912
:1012E0001A833B689A687B689A637B68FA891A84D8
:1012F0001437BD465DF8047B704700BF0000014015
:101300000004014080B485B000AF786039600023EC
:101310007B810023FB810023BB817B681B8C9BB2FC
:1013200023F480739AB27B681A847B681B8CFB81E0
:101330007B689B88BB817B689B8B7B817B8923F04F
:1013400070037B817B8923F003037B813B681A88D0
:101350007B8913437B81FB8923F40073FB813B680A
:101360009B891B029AB2FB891343FB813B685B8814
:101370001B029AB2FB891343FB817A68224B9A4283
:1013800003D07A68214B9A422BD1FB8923F4006366
:10139000FB813B68DB891B029AB2FB891343FB810B
:1013A000FB8923F48063FB813B689B881B029AB214
:1013B000FB891343FB81BB8923F48053BB81BB8929
:1013C00023F40053BB813B681B8A1B019AB2BB8983
:1013D0001343BB813B685B8A1B019AB2BB891343F1
:1013E000BB817B68BA899A807B687A899A833B68DB
:1013F0009A687B68DA637B68FA891A841437BD4679
:101400005DF8047B704700BF00000140000401400C
:1014100080B485B000AF786039600023BB810023C1
:101420007B810023FB817B681B8C9BB223F4805360
:101430009AB27B681A847B681B8C7B817B689B8853
:10144000FB817B689B8BBB81BB8923F4E043BB8121
:10145000BB8923F44073BB813B681B881B029AB293
:10146000BB891343BB817B8923F400537B813B6899
:101470009B891B039AB27B8913437B813B685B8802
:101480001B039AB27B8913437B817A68114B9A4282
:1014900003D07A68104B9A420AD1FB8923F4804327
:1014A000FB813B681B8A9B019AB2FB891343FB813A
:1014B0007B68FA899A807B68BA899A833B689A68C4
:1014C0007B681A647B687A891A841437BD465DF894
:1014D000047B7047000001400004014080B485B0E7
:1014E00000AF78600B467B800023FB817B681B8B01
:1014F000FB81FB8923F00803FB81FA897B88134376
:10150000FB817B68FA891A831437BD465DF8047B3A
:10151000704700BF80B485B000AF78600B467B8019
:101520000023FB817B681B8BFB81FB8923F4006319
:10153000FB817B881B029AB2FB891343FB817B688A
:10154000FA891A831437BD465DF8047B704700BFE3
:1015500080B485B000AF78600B467B800023FB81B0
:101560007B689B8BFB81FB8923F00803FB81FA8955
:101570007B881343FB817B68FA899A831437BD46C5
:101580005DF8047B704700BF80B485B000AF786021
:101590000B467B800023FB817B689B8BFB81FB8957
:1015A00023F40063FB817B881B029AB2FB891343FF
:1015B000FB817B68FA899A831437BD465DF8047B0A
:1015C000704700BF80B483B000AF786013460A460E
:1015D0007A807B707B78002B08D07B689B899AB2DD
:1015E0007B8813439AB27B689A8109E07B689B8968
:1015F0009AB27B88DB439BB213409AB27B689A8194
:101600000C37BD465DF8047B704700BF80B485B0E1
:1016100000AF78600B467B800023FB730023BB8107
:1016200000237B817B681B8A9AB27B881340BB8135
:101630007B689B899AB27B8813407B81BB89002B96
:1016400005D07B89002B02D00123FB7301E000232E
:10165000FB73FB7B18461437BD465DF8047B70476F
:1016600080B483B000AF78600B467B807B88DB431F
:101670009AB27B681A820C37BD465DF8047B7047CE
:1016800080F0004002E000BF81F0004142001FBF37
:101690005FEA410392EA030F7FEA226C7FEA236C40
:1016A0006AD04FEA1262D2EB1363C1BFD218414035
:1016B00048404140B8BF5B42192B88BF704710F0CB
:1016C000004F40F4000020F07F4018BF404211F06E
:1016D000004F41F4000121F07F4118BF494292EAD6
:1016E000030F3FD0A2F1010241FA03FC10EB0C0002
:1016F000C3F1200301FA03F100F0004302D549428F
:1017000060EB4000B0F5000F13D3B0F1807F06D33B
:1017100040084FEA310102F10102FE2A51D2B1F133
:10172000004F40EBC25008BF20F0010040EA030028
:101730007047490040EB000010F4000FA2F10102D5
:10174000EDD1B0FA80FCACF1080CB2EB0C0200FA5F
:101750000CF0AABF00EBC25052421843BCBFD040AD
:101760001843704792F0000F81F4000106BF80F427
:1017700000000132013BB5E74FEA41037FEA226CEA
:1017800018BF7FEA236C21D092EA030F04D092F0B5
:10179000000F08BF0846704790EA010F1CBF0020E9
:1017A000704712F07F4F04D1400028BF40F0004046
:1017B000704712F100723CBF00F50000704700F066
:1017C000004343F0FE4040F4000070477FEA22628D
:1017D00016BF08467FEA23630146420206BF5FEA5E
:1017E000412390EA010F40F4800070474FF000035E
:1017F00004E000BF10F0004348BF40425FEA000C25
:1018000008BF704743F0964301464FF000001CE0CC
:1018100050EA010208BF70474FF000030AE000BF22
:1018200050EA010208BF704711F0004302D5404260
:1018300061EB41015FEA010C02BF844601460020D2
:1018400043F0B64308BFA3F18053A3F50003BCFAED
:101850008CF2083AA3EBC25310DB01FA02FC63449A
:1018600000FA02FCC2F12002BCF1004F20FA02F2A1
:1018700043EB020008BF20F00100704702F1200294
:1018800001FA02FCC2F1200250EA4C0021FA02F2F5
:1018900043EB020008BF20EADC7070474FF0FF0CFA
:1018A0001CEAD0521EBF1CEAD15392EA0C0F93EAF5
:1018B0000C0F6FD01A4480EA010C400218BF5FEA97
:1018C00041211ED04FF0006343EA501043EA51110A
:1018D000A0FB01310CF00040B1F5000F3EBF490004
:1018E00041EAD3715B0040EA010062F17F02FD2A08
:1018F0001DD8B3F1004F40EBC25008BF20F00100EB
:10190000704790F0000F0CF0004C08BF49024CEA01
:10191000502040EA51207F3AC2BFD2F1FF0340EA93
:10192000C250704740F400004FF00003013A5DDC04
:1019300012F1190FDCBF00F000407047C2F1000245
:10194000410021FA02F1C2F1200200FA02FC5FEA32
:10195000310040F1000053EA4C0308BF20EADC707C
:10196000704792F0000F00F0004C02BF400010F4EE
:10197000000F013AF9D040EA0C0093F0000F01F09B
:10198000004C02BF490011F4000F013BF9D041EABD
:101990000C018FE70CEAD15392EA0C0F18BF93EABF
:1019A0000C0F0AD030F0004C18BF31F0004CD8D1E9
:1019B00080EA010000F00040704790F0000F17BF70
:1019C00090F0004F084691F0000F91F0004F14D0B6
:1019D00092EA0C0F01D142020FD193EA0C0F03D10E
:1019E0004B0218BF084608D180EA010000F0004011
:1019F00040F0FE4040F40000704740F0FE4040F4EC
:101A0000400070474FF0FF0C1CEAD0521EBF1CEA8A
:101A1000D15392EA0C0F93EA0C0F69D0A2EB0302A8
:101A200080EA010C49024FEA402037D04FF0805342
:101A300043EA111143EA10130CF000408B4238BF07
:101A40005B0042F17D024FF4000C8B4224BF5B1A15
:101A500040EA0C00B3EB510F24BFA3EB510340EA63
:101A60005C00B3EB910F24BFA3EB910340EA9C0011
:101A7000B3EBD10F24BFA3EBD10340EADC001B0181
:101A800018BF5FEA1C1CE0D1FD2A3FF650AF8B4225
:101A900040EBC25008BF20F0010070470CF0004C32
:101AA0004CEA50207F32C2BFD2F1FF0340EAC2505D
:101AB000704740F400004FF00003013A37E792F01E
:101AC000000F00F0004C02BF400010F4000F013A7C
:101AD000F9D040EA0C0093F0000F01F0004C02BF77
:101AE000490011F4000F013BF9D041EA0C0195E7E0
:101AF0000CEAD15392EA0C0F08D142027FF47DAF79
:101B000093EA0C0F7FF470AF084676E793EA0C0F68
:101B100004D14B023FF44CAF08466EE730F0004C66
:101B200018BF31F0004CCAD130F000427FF45CAFF6
:101B300031F000437FF43CAF5FE700BF4FF0FF3C64
:101B400006E000BF4FF0010C02E000BF4FF0010CB7
:101B50004DF804CD4FEA40024FEA41037FEA226C80
:101B600018BF7FEA236C11D001B052EA530C18BFA2
:101B700090EA010F58BFB2EB030088BFC81738BF07
:101B80006FEAE17018BF40F0010070477FEA226CF5
:101B900002D15FEA402C05D17FEA236CE4D15FEAF1
:101BA000412CE1D05DF8040B704700BF8446084625
:101BB0006146FFE70FB5FFF7C9FF002848BF10F1E6
:101BC000000F0FBD4DF808EDFFF7F4FF0CBF01202B
:101BD00000205DF808FB00BF4DF808EDFFF7EAFFB5
:101BE00034BF012000205DF808FB00BF4DF808ED70
:101BF000FFF7E0FF94BF012000205DF808FB00BF65
:101C00004DF808EDFFF7D2FF94BF012000205DF8EA
:101C100008FB00BF4DF808EDFFF7C8FF34BF0120F7
:101C200000205DF808FB00BF4FEA4002B2F1FE4F12
:101C30000FD34FF09E03B3EB12620DD94FEA00238E
:101C400043F0004310F0004F23FA02F018BF404267
:101C500070474FF00000704712F1610F01D142024E
:101C600005D110F0004008BF6FF0004070474FF002
:101C70000000704700100040002000803408004041
:0C1C80003C0800403808004040080040CC
:101C8C00E8030000000C0240000C0240000C024073
:041C9C00000C0240F6
:0400000508000000EF
:00000001FF
